{
  "contractName": "ERC1155Mint",
  "abi": [
    {
      "inputs": [],
      "stateMutability": "nonpayable",
      "type": "constructor"
    },
    {
      "anonymous": false,
      "inputs": [
        {
          "indexed": true,
          "internalType": "address",
          "name": "account",
          "type": "address"
        },
        {
          "indexed": true,
          "internalType": "address",
          "name": "operator",
          "type": "address"
        },
        {
          "indexed": false,
          "internalType": "bool",
          "name": "approved",
          "type": "bool"
        }
      ],
      "name": "ApprovalForAll",
      "type": "event"
    },
    {
      "anonymous": false,
      "inputs": [
        {
          "indexed": true,
          "internalType": "address",
          "name": "operator",
          "type": "address"
        },
        {
          "indexed": true,
          "internalType": "address",
          "name": "from",
          "type": "address"
        },
        {
          "indexed": true,
          "internalType": "address",
          "name": "to",
          "type": "address"
        },
        {
          "indexed": false,
          "internalType": "uint256[]",
          "name": "ids",
          "type": "uint256[]"
        },
        {
          "indexed": false,
          "internalType": "uint256[]",
          "name": "values",
          "type": "uint256[]"
        }
      ],
      "name": "TransferBatch",
      "type": "event"
    },
    {
      "anonymous": false,
      "inputs": [
        {
          "indexed": true,
          "internalType": "address",
          "name": "operator",
          "type": "address"
        },
        {
          "indexed": true,
          "internalType": "address",
          "name": "from",
          "type": "address"
        },
        {
          "indexed": true,
          "internalType": "address",
          "name": "to",
          "type": "address"
        },
        {
          "indexed": false,
          "internalType": "uint256",
          "name": "id",
          "type": "uint256"
        },
        {
          "indexed": false,
          "internalType": "uint256",
          "name": "value",
          "type": "uint256"
        }
      ],
      "name": "TransferSingle",
      "type": "event"
    },
    {
      "anonymous": false,
      "inputs": [
        {
          "indexed": false,
          "internalType": "string",
          "name": "value",
          "type": "string"
        },
        {
          "indexed": true,
          "internalType": "uint256",
          "name": "id",
          "type": "uint256"
        }
      ],
      "name": "URI",
      "type": "event"
    },
    {
      "inputs": [
        {
          "internalType": "address",
          "name": "account",
          "type": "address"
        },
        {
          "internalType": "uint256",
          "name": "id",
          "type": "uint256"
        }
      ],
      "name": "balanceOf",
      "outputs": [
        {
          "internalType": "uint256",
          "name": "",
          "type": "uint256"
        }
      ],
      "stateMutability": "view",
      "type": "function"
    },
    {
      "inputs": [
        {
          "internalType": "address[]",
          "name": "accounts",
          "type": "address[]"
        },
        {
          "internalType": "uint256[]",
          "name": "ids",
          "type": "uint256[]"
        }
      ],
      "name": "balanceOfBatch",
      "outputs": [
        {
          "internalType": "uint256[]",
          "name": "",
          "type": "uint256[]"
        }
      ],
      "stateMutability": "view",
      "type": "function"
    },
    {
      "inputs": [
        {
          "internalType": "address",
          "name": "account",
          "type": "address"
        },
        {
          "internalType": "address",
          "name": "operator",
          "type": "address"
        }
      ],
      "name": "isApprovedForAll",
      "outputs": [
        {
          "internalType": "bool",
          "name": "",
          "type": "bool"
        }
      ],
      "stateMutability": "view",
      "type": "function"
    },
    {
      "inputs": [
        {
          "internalType": "address",
          "name": "from",
          "type": "address"
        },
        {
          "internalType": "address",
          "name": "to",
          "type": "address"
        },
        {
          "internalType": "uint256[]",
          "name": "ids",
          "type": "uint256[]"
        },
        {
          "internalType": "uint256[]",
          "name": "amounts",
          "type": "uint256[]"
        },
        {
          "internalType": "bytes",
          "name": "data",
          "type": "bytes"
        }
      ],
      "name": "safeBatchTransferFrom",
      "outputs": [],
      "stateMutability": "nonpayable",
      "type": "function"
    },
    {
      "inputs": [
        {
          "internalType": "address",
          "name": "from",
          "type": "address"
        },
        {
          "internalType": "address",
          "name": "to",
          "type": "address"
        },
        {
          "internalType": "uint256",
          "name": "id",
          "type": "uint256"
        },
        {
          "internalType": "uint256",
          "name": "amount",
          "type": "uint256"
        },
        {
          "internalType": "bytes",
          "name": "data",
          "type": "bytes"
        }
      ],
      "name": "safeTransferFrom",
      "outputs": [],
      "stateMutability": "nonpayable",
      "type": "function"
    },
    {
      "inputs": [
        {
          "internalType": "address",
          "name": "operator",
          "type": "address"
        },
        {
          "internalType": "bool",
          "name": "approved",
          "type": "bool"
        }
      ],
      "name": "setApprovalForAll",
      "outputs": [],
      "stateMutability": "nonpayable",
      "type": "function"
    },
    {
      "inputs": [
        {
          "internalType": "bytes4",
          "name": "interfaceId",
          "type": "bytes4"
        }
      ],
      "name": "supportsInterface",
      "outputs": [
        {
          "internalType": "bool",
          "name": "",
          "type": "bool"
        }
      ],
      "stateMutability": "view",
      "type": "function"
    },
    {
      "inputs": [
        {
          "internalType": "uint256",
          "name": "",
          "type": "uint256"
        }
      ],
      "name": "uri",
      "outputs": [
        {
          "internalType": "string",
          "name": "",
          "type": "string"
        }
      ],
      "stateMutability": "view",
      "type": "function"
    },
    {
      "inputs": [
        {
          "internalType": "uint256[]",
          "name": "_id",
          "type": "uint256[]"
        },
        {
          "internalType": "uint256[]",
          "name": "_amount",
          "type": "uint256[]"
        },
        {
          "internalType": "bytes",
          "name": "data",
          "type": "bytes"
        }
      ],
      "name": "mint",
      "outputs": [],
      "stateMutability": "nonpayable",
      "type": "function"
    }
  ],
  "bytecode": "0x6080604052733799ff376455a3d095a21689b3d479debc1c49ed600460006101000a81548173ffffffffffffffffffffffffffffffffffffffff021916908373ffffffffffffffffffffffffffffffffffffffff1602179055503480156200006657600080fd5b506040518060600160405280602c815260200162002cab602c91396200009281620000da60201b60201c565b5033600360006101000a81548173ffffffffffffffffffffffffffffffffffffffff021916908373ffffffffffffffffffffffffffffffffffffffff1602179055506200020b565b8060029080519060200190620000f2929190620000f6565b5050565b8280546200010490620001a6565b90600052602060002090601f01602090048101928262000128576000855562000174565b82601f106200014357805160ff191683800117855562000174565b8280016001018555821562000174579182015b828111156200017357825182559160200191906001019062000156565b5b50905062000183919062000187565b5090565b5b80821115620001a257600081600090555060010162000188565b5090565b60006002820490506001821680620001bf57607f821691505b60208210811415620001d657620001d5620001dc565b5b50919050565b7f4e487b7100000000000000000000000000000000000000000000000000000000600052602260045260246000fd5b612a90806200021b6000396000f3fe608060405234801561001057600080fd5b50600436106100925760003560e01c80634e1273f4116100665780634e1273f4146101435780638ff45d9314610173578063a22cb4651461018f578063e985e9c5146101ab578063f242432a146101db57610092565b8062fdd58e1461009757806301ffc9a7146100c75780630e89341c146100f75780632eb2c2d614610127575b600080fd5b6100b160048036038101906100ac9190611b04565b6101f7565b6040516100be919061221b565b60405180910390f35b6100e160048036038101906100dc9190611c43565b6102c0565b6040516100ee919061207e565b60405180910390f35b610111600480360381019061010c9190611c95565b6103a2565b60405161011e9190612099565b60405180910390f35b610141600480360381019061013c919061197a565b610436565b005b61015d60048036038101906101589190611b40565b6104d7565b60405161016a9190612025565b60405180910390f35b61018d60048036038101906101889190611bac565b610688565b005b6101a960048036038101906101a49190611ac8565b61070c565b005b6101c560048036038101906101c0919061193e565b610722565b6040516101d2919061207e565b60405180910390f35b6101f560048036038101906101f09190611a39565b6107b6565b005b60008073ffffffffffffffffffffffffffffffffffffffff168373ffffffffffffffffffffffffffffffffffffffff161415610268576040517f08c379a000000000000000000000000000000000000000000000000000000000815260040161025f906120fb565b60405180910390fd5b60008083815260200190815260200160002060008473ffffffffffffffffffffffffffffffffffffffff1673ffffffffffffffffffffffffffffffffffffffff16815260200190815260200160002054905092915050565b60007fd9b67a26000000000000000000000000000000000000000000000000000000007bffffffffffffffffffffffffffffffffffffffffffffffffffffffff1916827bffffffffffffffffffffffffffffffffffffffffffffffffffffffff1916148061038b57507f0e89341c000000000000000000000000000000000000000000000000000000007bffffffffffffffffffffffffffffffffffffffffffffffffffffffff1916827bffffffffffffffffffffffffffffffffffffffffffffffffffffffff1916145b8061039b575061039a82610857565b5b9050919050565b6060600280546103b19061248a565b80601f01602080910402602001604051908101604052809291908181526020018280546103dd9061248a565b801561042a5780601f106103ff5761010080835404028352916020019161042a565b820191906000526020600020905b81548152906001019060200180831161040d57829003601f168201915b50505050509050919050565b61043e6108c1565b73ffffffffffffffffffffffffffffffffffffffff168573ffffffffffffffffffffffffffffffffffffffff16148061048457506104838561047e6108c1565b610722565b5b6104c3576040517f08c379a00000000000000000000000000000000000000000000000000000000081526004016104ba9061215b565b60405180910390fd5b6104d085858585856108c9565b5050505050565b6060815183511461051d576040517f08c379a0000000000000000000000000000000000000000000000000000000008152600401610514906121bb565b60405180910390fd5b6000835167ffffffffffffffff811115610560577f4e487b7100000000000000000000000000000000000000000000000000000000600052604160045260246000fd5b60405190808252806020026020018201604052801561058e5781602001602082028036833780820191505090505b50905060005b845181101561067d576106278582815181106105d9577f4e487b7100000000000000000000000000000000000000000000000000000000600052603260045260246000fd5b602002602001015185838151811061061a577f4e487b7100000000000000000000000000000000000000000000000000000000600052603260045260246000fd5b60200260200101516101f7565b828281518110610660577f4e487b7100000000000000000000000000000000000000000000000000000000600052603260045260246000fd5b60200260200101818152505080610676906124ed565b9050610594565b508091505092915050565b6106b6600360009054906101000a900473ffffffffffffffffffffffffffffffffffffffff16848484610c29565b610707600360009054906101000a900473ffffffffffffffffffffffffffffffffffffffff16600460009054906101000a900473ffffffffffffffffffffffffffffffffffffffff168585856108c9565b505050565b61071e6107176108c1565b8383610e93565b5050565b6000600160008473ffffffffffffffffffffffffffffffffffffffff1673ffffffffffffffffffffffffffffffffffffffff16815260200190815260200160002060008373ffffffffffffffffffffffffffffffffffffffff1673ffffffffffffffffffffffffffffffffffffffff16815260200190815260200160002060009054906101000a900460ff16905092915050565b6107be6108c1565b73ffffffffffffffffffffffffffffffffffffffff168573ffffffffffffffffffffffffffffffffffffffff1614806108045750610803856107fe6108c1565b610722565b5b610843576040517f08c379a000000000000000000000000000000000000000000000000000000000815260040161083a9061211b565b60405180910390fd5b6108508585858585611000565b5050505050565b60007f01ffc9a7000000000000000000000000000000000000000000000000000000007bffffffffffffffffffffffffffffffffffffffffffffffffffffffff1916827bffffffffffffffffffffffffffffffffffffffffffffffffffffffff1916149050919050565b600033905090565b815183511461090d576040517f08c379a0000000000000000000000000000000000000000000000000000000008152600401610904906121db565b60405180910390fd5b600073ffffffffffffffffffffffffffffffffffffffff168473ffffffffffffffffffffffffffffffffffffffff16141561097d576040517f08c379a00000000000000000000000000000000000000000000000000000000081526004016109749061213b565b60405180910390fd5b60006109876108c1565b9050610997818787878787611282565b60005b8451811015610b945760008582815181106109de577f4e487b7100000000000000000000000000000000000000000000000000000000600052603260045260246000fd5b602002602001015190506000858381518110610a23577f4e487b7100000000000000000000000000000000000000000000000000000000600052603260045260246000fd5b60200260200101519050600080600084815260200190815260200160002060008b73ffffffffffffffffffffffffffffffffffffffff1673ffffffffffffffffffffffffffffffffffffffff16815260200190815260200160002054905081811015610ac4576040517f08c379a0000000000000000000000000000000000000000000000000000000008152600401610abb9061217b565b60405180910390fd5b81810360008085815260200190815260200160002060008c73ffffffffffffffffffffffffffffffffffffffff1673ffffffffffffffffffffffffffffffffffffffff168152602001908152602001600020819055508160008085815260200190815260200160002060008b73ffffffffffffffffffffffffffffffffffffffff1673ffffffffffffffffffffffffffffffffffffffff1681526020019081526020016000206000828254610b79919061237e565b9250508190555050505080610b8d906124ed565b905061099a565b508473ffffffffffffffffffffffffffffffffffffffff168673ffffffffffffffffffffffffffffffffffffffff168273ffffffffffffffffffffffffffffffffffffffff167f4a39dc06d4c0dbc64b70af90fd698a233a518aa5d07e595d983b8c0526c8f7fb8787604051610c0b929190612047565b60405180910390a4610c2181878787878761128a565b505050505050565b600073ffffffffffffffffffffffffffffffffffffffff168473ffffffffffffffffffffffffffffffffffffffff161415610c99576040517f08c379a0000000000000000000000000000000000000000000000000000000008152600401610c90906121fb565b60405180910390fd5b8151835114610cdd576040517f08c379a0000000000000000000000000000000000000000000000000000000008152600401610cd4906121db565b60405180910390fd5b6000610ce76108c1565b9050610cf881600087878787611282565b60005b8451811015610dfd57838181518110610d3d577f4e487b7100000000000000000000000000000000000000000000000000000000600052603260045260246000fd5b6020026020010151600080878481518110610d81577f4e487b7100000000000000000000000000000000000000000000000000000000600052603260045260246000fd5b6020026020010151815260200190815260200160002060008873ffffffffffffffffffffffffffffffffffffffff1673ffffffffffffffffffffffffffffffffffffffff1681526020019081526020016000206000828254610de3919061237e565b925050819055508080610df5906124ed565b915050610cfb565b508473ffffffffffffffffffffffffffffffffffffffff16600073ffffffffffffffffffffffffffffffffffffffff168273ffffffffffffffffffffffffffffffffffffffff167f4a39dc06d4c0dbc64b70af90fd698a233a518aa5d07e595d983b8c0526c8f7fb8787604051610e75929190612047565b60405180910390a4610e8c8160008787878761128a565b5050505050565b8173ffffffffffffffffffffffffffffffffffffffff168373ffffffffffffffffffffffffffffffffffffffff161415610f02576040517f08c379a0000000000000000000000000000000000000000000000000000000008152600401610ef99061219b565b60405180910390fd5b80600160008573ffffffffffffffffffffffffffffffffffffffff1673ffffffffffffffffffffffffffffffffffffffff16815260200190815260200160002060008473ffffffffffffffffffffffffffffffffffffffff1673ffffffffffffffffffffffffffffffffffffffff16815260200190815260200160002060006101000a81548160ff0219169083151502179055508173ffffffffffffffffffffffffffffffffffffffff168373ffffffffffffffffffffffffffffffffffffffff167f17307eab39ab6107e8899845ad3d59bd9653f200f220920489ca2b5937696c3183604051610ff3919061207e565b60405180910390a3505050565b600073ffffffffffffffffffffffffffffffffffffffff168473ffffffffffffffffffffffffffffffffffffffff161415611070576040517f08c379a00000000000000000000000000000000000000000000000000000000081526004016110679061213b565b60405180910390fd5b600061107a6108c1565b905061109a81878761108b88611471565b61109488611471565b87611282565b600080600086815260200190815260200160002060008873ffffffffffffffffffffffffffffffffffffffff1673ffffffffffffffffffffffffffffffffffffffff16815260200190815260200160002054905083811015611131576040517f08c379a00000000000000000000000000000000000000000000000000000000081526004016111289061217b565b60405180910390fd5b83810360008087815260200190815260200160002060008973ffffffffffffffffffffffffffffffffffffffff1673ffffffffffffffffffffffffffffffffffffffff168152602001908152602001600020819055508360008087815260200190815260200160002060008873ffffffffffffffffffffffffffffffffffffffff1673ffffffffffffffffffffffffffffffffffffffff16815260200190815260200160002060008282546111e6919061237e565b925050819055508573ffffffffffffffffffffffffffffffffffffffff168773ffffffffffffffffffffffffffffffffffffffff168373ffffffffffffffffffffffffffffffffffffffff167fc3d58168c5ae7397731d063d5bbf3d657854427343f4c083240f7aacaa2d0f628888604051611263929190612236565b60405180910390a4611279828888888888611537565b50505050505050565b505050505050565b6112a98473ffffffffffffffffffffffffffffffffffffffff1661171e565b15611469578373ffffffffffffffffffffffffffffffffffffffff1663bc197c8187878686866040518663ffffffff1660e01b81526004016112ef959493929190611f63565b602060405180830381600087803b15801561130957600080fd5b505af192505050801561133a57506040513d601f19601f820116820180604052508101906113379190611c6c565b60015b6113e0576113466125c3565b806308c379a014156113a3575061135b612968565b8061136657506113a5565b806040517f08c379a000000000000000000000000000000000000000000000000000000000815260040161139a9190612099565b60405180910390fd5b505b6040517f08c379a00000000000000000000000000000000000000000000000000000000081526004016113d7906120bb565b60405180910390fd5b63bc197c8160e01b7bffffffffffffffffffffffffffffffffffffffffffffffffffffffff1916817bffffffffffffffffffffffffffffffffffffffffffffffffffffffff191614611467576040517f08c379a000000000000000000000000000000000000000000000000000000000815260040161145e906120db565b60405180910390fd5b505b505050505050565b60606000600167ffffffffffffffff8111156114b6577f4e487b7100000000000000000000000000000000000000000000000000000000600052604160045260246000fd5b6040519080825280602002602001820160405280156114e45781602001602082028036833780820191505090505b5090508281600081518110611522577f4e487b7100000000000000000000000000000000000000000000000000000000600052603260045260246000fd5b60200260200101818152505080915050919050565b6115568473ffffffffffffffffffffffffffffffffffffffff1661171e565b15611716578373ffffffffffffffffffffffffffffffffffffffff1663f23a6e6187878686866040518663ffffffff1660e01b815260040161159c959493929190611fcb565b602060405180830381600087803b1580156115b657600080fd5b505af19250505080156115e757506040513d601f19601f820116820180604052508101906115e49190611c6c565b60015b61168d576115f36125c3565b806308c379a014156116505750611608612968565b806116135750611652565b806040517f08c379a00000000000000000000000000000000000000000000000000000000081526004016116479190612099565b60405180910390fd5b505b6040517f08c379a0000000000000000000000000000000000000000000000000000000008152600401611684906120bb565b60405180910390fd5b63f23a6e6160e01b7bffffffffffffffffffffffffffffffffffffffffffffffffffffffff1916817bffffffffffffffffffffffffffffffffffffffffffffffffffffffff191614611714576040517f08c379a000000000000000000000000000000000000000000000000000000000815260040161170b906120db565b60405180910390fd5b505b505050505050565b6000808273ffffffffffffffffffffffffffffffffffffffff163b119050919050565b600061175461174f84612284565b61225f565b9050808382526020820190508285602086028201111561177357600080fd5b60005b858110156117a357816117898882611857565b845260208401935060208301925050600181019050611776565b5050509392505050565b60006117c06117bb846122b0565b61225f565b905080838252602082019050828560208602820111156117df57600080fd5b60005b8581101561180f57816117f58882611929565b8452602084019350602083019250506001810190506117e2565b5050509392505050565b600061182c611827846122dc565b61225f565b90508281526020810184848401111561184457600080fd5b61184f848285612448565b509392505050565b600081359050611866816129fe565b92915050565b600082601f83011261187d57600080fd5b813561188d848260208601611741565b91505092915050565b600082601f8301126118a757600080fd5b81356118b78482602086016117ad565b91505092915050565b6000813590506118cf81612a15565b92915050565b6000813590506118e481612a2c565b92915050565b6000815190506118f981612a2c565b92915050565b600082601f83011261191057600080fd5b8135611920848260208601611819565b91505092915050565b60008135905061193881612a43565b92915050565b6000806040838503121561195157600080fd5b600061195f85828601611857565b925050602061197085828601611857565b9150509250929050565b600080600080600060a0868803121561199257600080fd5b60006119a088828901611857565b95505060206119b188828901611857565b945050604086013567ffffffffffffffff8111156119ce57600080fd5b6119da88828901611896565b935050606086013567ffffffffffffffff8111156119f757600080fd5b611a0388828901611896565b925050608086013567ffffffffffffffff811115611a2057600080fd5b611a2c888289016118ff565b9150509295509295909350565b600080600080600060a08688031215611a5157600080fd5b6000611a5f88828901611857565b9550506020611a7088828901611857565b9450506040611a8188828901611929565b9350506060611a9288828901611929565b925050608086013567ffffffffffffffff811115611aaf57600080fd5b611abb888289016118ff565b9150509295509295909350565b60008060408385031215611adb57600080fd5b6000611ae985828601611857565b9250506020611afa858286016118c0565b9150509250929050565b60008060408385031215611b1757600080fd5b6000611b2585828601611857565b9250506020611b3685828601611929565b9150509250929050565b60008060408385031215611b5357600080fd5b600083013567ffffffffffffffff811115611b6d57600080fd5b611b798582860161186c565b925050602083013567ffffffffffffffff811115611b9657600080fd5b611ba285828601611896565b9150509250929050565b600080600060608486031215611bc157600080fd5b600084013567ffffffffffffffff811115611bdb57600080fd5b611be786828701611896565b935050602084013567ffffffffffffffff811115611c0457600080fd5b611c1086828701611896565b925050604084013567ffffffffffffffff811115611c2d57600080fd5b611c39868287016118ff565b9150509250925092565b600060208284031215611c5557600080fd5b6000611c63848285016118d5565b91505092915050565b600060208284031215611c7e57600080fd5b6000611c8c848285016118ea565b91505092915050565b600060208284031215611ca757600080fd5b6000611cb584828501611929565b91505092915050565b6000611cca8383611f45565b60208301905092915050565b611cdf816123d4565b82525050565b6000611cf08261231d565b611cfa818561234b565b9350611d058361230d565b8060005b83811015611d36578151611d1d8882611cbe565b9750611d288361233e565b925050600181019050611d09565b5085935050505092915050565b611d4c816123e6565b82525050565b6000611d5d82612328565b611d67818561235c565b9350611d77818560208601612457565b611d80816125e5565b840191505092915050565b6000611d9682612333565b611da0818561236d565b9350611db0818560208601612457565b611db9816125e5565b840191505092915050565b6000611dd160348361236d565b9150611ddc82612603565b604082019050919050565b6000611df460288361236d565b9150611dff82612652565b604082019050919050565b6000611e17602b8361236d565b9150611e22826126a1565b604082019050919050565b6000611e3a60298361236d565b9150611e45826126f0565b604082019050919050565b6000611e5d60258361236d565b9150611e688261273f565b604082019050919050565b6000611e8060328361236d565b9150611e8b8261278e565b604082019050919050565b6000611ea3602a8361236d565b9150611eae826127dd565b604082019050919050565b6000611ec660298361236d565b9150611ed18261282c565b604082019050919050565b6000611ee960298361236d565b9150611ef48261287b565b604082019050919050565b6000611f0c60288361236d565b9150611f17826128ca565b604082019050919050565b6000611f2f60218361236d565b9150611f3a82612919565b604082019050919050565b611f4e8161243e565b82525050565b611f5d8161243e565b82525050565b600060a082019050611f786000830188611cd6565b611f856020830187611cd6565b8181036040830152611f978186611ce5565b90508181036060830152611fab8185611ce5565b90508181036080830152611fbf8184611d52565b90509695505050505050565b600060a082019050611fe06000830188611cd6565b611fed6020830187611cd6565b611ffa6040830186611f54565b6120076060830185611f54565b81810360808301526120198184611d52565b90509695505050505050565b6000602082019050818103600083015261203f8184611ce5565b905092915050565b600060408201905081810360008301526120618185611ce5565b905081810360208301526120758184611ce5565b90509392505050565b60006020820190506120936000830184611d43565b92915050565b600060208201905081810360008301526120b38184611d8b565b905092915050565b600060208201905081810360008301526120d481611dc4565b9050919050565b600060208201905081810360008301526120f481611de7565b9050919050565b6000602082019050818103600083015261211481611e0a565b9050919050565b6000602082019050818103600083015261213481611e2d565b9050919050565b6000602082019050818103600083015261215481611e50565b9050919050565b6000602082019050818103600083015261217481611e73565b9050919050565b6000602082019050818103600083015261219481611e96565b9050919050565b600060208201905081810360008301526121b481611eb9565b9050919050565b600060208201905081810360008301526121d481611edc565b9050919050565b600060208201905081810360008301526121f481611eff565b9050919050565b6000602082019050818103600083015261221481611f22565b9050919050565b60006020820190506122306000830184611f54565b92915050565b600060408201905061224b6000830185611f54565b6122586020830184611f54565b9392505050565b600061226961227a565b905061227582826124bc565b919050565b6000604051905090565b600067ffffffffffffffff82111561229f5761229e612594565b5b602082029050602081019050919050565b600067ffffffffffffffff8211156122cb576122ca612594565b5b602082029050602081019050919050565b600067ffffffffffffffff8211156122f7576122f6612594565b5b612300826125e5565b9050602081019050919050565b6000819050602082019050919050565b600081519050919050565b600081519050919050565b600081519050919050565b6000602082019050919050565b600082825260208201905092915050565b600082825260208201905092915050565b600082825260208201905092915050565b60006123898261243e565b91506123948361243e565b9250827fffffffffffffffffffffffffffffffffffffffffffffffffffffffffffffffff038211156123c9576123c8612536565b5b828201905092915050565b60006123df8261241e565b9050919050565b60008115159050919050565b60007fffffffff0000000000000000000000000000000000000000000000000000000082169050919050565b600073ffffffffffffffffffffffffffffffffffffffff82169050919050565b6000819050919050565b82818337600083830152505050565b60005b8381101561247557808201518184015260208101905061245a565b83811115612484576000848401525b50505050565b600060028204905060018216806124a257607f821691505b602082108114156124b6576124b5612565565b5b50919050565b6124c5826125e5565b810181811067ffffffffffffffff821117156124e4576124e3612594565b5b80604052505050565b60006124f88261243e565b91507fffffffffffffffffffffffffffffffffffffffffffffffffffffffffffffffff82141561252b5761252a612536565b5b600182019050919050565b7f4e487b7100000000000000000000000000000000000000000000000000000000600052601160045260246000fd5b7f4e487b7100000000000000000000000000000000000000000000000000000000600052602260045260246000fd5b7f4e487b7100000000000000000000000000000000000000000000000000000000600052604160045260246000fd5b600060033d11156125e25760046000803e6125df6000516125f6565b90505b90565b6000601f19601f8301169050919050565b60008160e01c9050919050565b7f455243313135353a207472616e7366657220746f206e6f6e204552433131353560008201527f526563656976657220696d706c656d656e746572000000000000000000000000602082015250565b7f455243313135353a204552433131353552656365697665722072656a6563746560008201527f6420746f6b656e73000000000000000000000000000000000000000000000000602082015250565b7f455243313135353a2062616c616e636520717565727920666f7220746865207a60008201527f65726f2061646472657373000000000000000000000000000000000000000000602082015250565b7f455243313135353a2063616c6c6572206973206e6f74206f776e6572206e6f7260008201527f20617070726f7665640000000000000000000000000000000000000000000000602082015250565b7f455243313135353a207472616e7366657220746f20746865207a65726f20616460008201527f6472657373000000000000000000000000000000000000000000000000000000602082015250565b7f455243313135353a207472616e736665722063616c6c6572206973206e6f742060008201527f6f776e6572206e6f7220617070726f7665640000000000000000000000000000602082015250565b7f455243313135353a20696e73756666696369656e742062616c616e636520666f60008201527f72207472616e7366657200000000000000000000000000000000000000000000602082015250565b7f455243313135353a2073657474696e6720617070726f76616c2073746174757360008201527f20666f722073656c660000000000000000000000000000000000000000000000602082015250565b7f455243313135353a206163636f756e747320616e6420696473206c656e67746860008201527f206d69736d617463680000000000000000000000000000000000000000000000602082015250565b7f455243313135353a2069647320616e6420616d6f756e7473206c656e6774682060008201527f6d69736d61746368000000000000000000000000000000000000000000000000602082015250565b7f455243313135353a206d696e7420746f20746865207a65726f2061646472657360008201527f7300000000000000000000000000000000000000000000000000000000000000602082015250565b600060443d1015612978576129fb565b61298061227a565b60043d036004823e80513d602482011167ffffffffffffffff821117156129a85750506129fb565b808201805167ffffffffffffffff8111156129c657505050506129fb565b80602083010160043d0385018111156129e35750505050506129fb565b6129f2826020018501866124bc565b82955050505050505b90565b612a07816123d4565b8114612a1257600080fd5b50565b612a1e816123e6565b8114612a2957600080fd5b50565b612a35816123f2565b8114612a4057600080fd5b50565b612a4c8161243e565b8114612a5757600080fd5b5056fea2646970667358221220a5da88473516f463c8399d5dc399d15496f609c724bda601ac40e56ef957520d64736f6c6343000804003368747470733a2f2f6d617276656c4e66742e6578616d706c652f6170692f6974656d2f7b69647d2e6a736f6e",
  "immutableReferences": {},
  "source": "// SPDX-License-Identifier: MIT\npragma solidity ^0.8.0;\n\nimport \"@openzeppelin/contracts/token/ERC1155/ERC1155.sol\";\nimport \"@openzeppelin/contracts/access/Ownable.sol\";\n\ncontract ERC1155Mint is ERC1155 {\n    address admin;\n    address reciever = 0x3799ff376455A3d095a21689B3D479DEBc1c49ED;\n\n    constructor() ERC1155(\"https://marvelNft.example/api/item/{id}.json\") {\n        admin = msg.sender;\n    }\n\n    function mint(\n        uint256[] memory _id,\n        uint256[] memory _amount,\n        bytes memory data\n    ) public {\n        _mintBatch(admin, _id, _amount, data);\n        _safeBatchTransferFrom(admin, reciever, _id, _amount, data);\n    }\n}\n",
  "sourcePath": "/Users/mohitchandel/Documents/work/NFTMinting/contracts/ERC1155Mint.sol",
  "compiler": {
    "name": "solc",
    "version": "0.8.4+commit.c7e474f2.Emscripten.clang"
  },
  "schemaVersion": "3.4.4",
  "updatedAt": "2022-03-24T08:07:18.972Z",
  "devdoc": {
    "kind": "dev",
    "methods": {
      "balanceOf(address,uint256)": {
        "details": "See {IERC1155-balanceOf}. Requirements: - `account` cannot be the zero address."
      },
      "balanceOfBatch(address[],uint256[])": {
        "details": "See {IERC1155-balanceOfBatch}. Requirements: - `accounts` and `ids` must have the same length."
      },
      "isApprovedForAll(address,address)": {
        "details": "See {IERC1155-isApprovedForAll}."
      },
      "safeBatchTransferFrom(address,address,uint256[],uint256[],bytes)": {
        "details": "See {IERC1155-safeBatchTransferFrom}."
      },
      "safeTransferFrom(address,address,uint256,uint256,bytes)": {
        "details": "See {IERC1155-safeTransferFrom}."
      },
      "setApprovalForAll(address,bool)": {
        "details": "See {IERC1155-setApprovalForAll}."
      },
      "supportsInterface(bytes4)": {
        "details": "See {IERC165-supportsInterface}."
      },
      "uri(uint256)": {
        "details": "See {IERC1155MetadataURI-uri}. This implementation returns the same URI for *all* token types. It relies on the token type ID substitution mechanism https://eips.ethereum.org/EIPS/eip-1155#metadata[defined in the EIP]. Clients calling this function must replace the `\\{id\\}` substring with the actual token type ID."
      }
    },
    "version": 1
  },
  "userdoc": {
    "kind": "user",
    "methods": {},
    "version": 1
  }
}