{
  "contractName": "ERC721AMint",
  "abi": [
    {
      "inputs": [],
      "stateMutability": "nonpayable",
      "type": "constructor"
    },
    {
      "inputs": [],
      "name": "ApprovalCallerNotOwnerNorApproved",
      "type": "error"
    },
    {
      "inputs": [],
      "name": "ApprovalQueryForNonexistentToken",
      "type": "error"
    },
    {
      "inputs": [],
      "name": "ApprovalToCurrentOwner",
      "type": "error"
    },
    {
      "inputs": [],
      "name": "ApproveToCaller",
      "type": "error"
    },
    {
      "inputs": [],
      "name": "BalanceQueryForZeroAddress",
      "type": "error"
    },
    {
      "inputs": [],
      "name": "MintToZeroAddress",
      "type": "error"
    },
    {
      "inputs": [],
      "name": "MintZeroQuantity",
      "type": "error"
    },
    {
      "inputs": [],
      "name": "OwnerQueryForNonexistentToken",
      "type": "error"
    },
    {
      "inputs": [],
      "name": "TransferCallerNotOwnerNorApproved",
      "type": "error"
    },
    {
      "inputs": [],
      "name": "TransferFromIncorrectOwner",
      "type": "error"
    },
    {
      "inputs": [],
      "name": "TransferToNonERC721ReceiverImplementer",
      "type": "error"
    },
    {
      "inputs": [],
      "name": "TransferToZeroAddress",
      "type": "error"
    },
    {
      "inputs": [],
      "name": "URIQueryForNonexistentToken",
      "type": "error"
    },
    {
      "anonymous": false,
      "inputs": [
        {
          "indexed": true,
          "internalType": "address",
          "name": "owner",
          "type": "address"
        },
        {
          "indexed": true,
          "internalType": "address",
          "name": "approved",
          "type": "address"
        },
        {
          "indexed": true,
          "internalType": "uint256",
          "name": "tokenId",
          "type": "uint256"
        }
      ],
      "name": "Approval",
      "type": "event"
    },
    {
      "anonymous": false,
      "inputs": [
        {
          "indexed": true,
          "internalType": "address",
          "name": "owner",
          "type": "address"
        },
        {
          "indexed": true,
          "internalType": "address",
          "name": "operator",
          "type": "address"
        },
        {
          "indexed": false,
          "internalType": "bool",
          "name": "approved",
          "type": "bool"
        }
      ],
      "name": "ApprovalForAll",
      "type": "event"
    },
    {
      "anonymous": false,
      "inputs": [
        {
          "indexed": true,
          "internalType": "address",
          "name": "from",
          "type": "address"
        },
        {
          "indexed": true,
          "internalType": "address",
          "name": "to",
          "type": "address"
        },
        {
          "indexed": true,
          "internalType": "uint256",
          "name": "tokenId",
          "type": "uint256"
        }
      ],
      "name": "Transfer",
      "type": "event"
    },
    {
      "inputs": [
        {
          "internalType": "address",
          "name": "to",
          "type": "address"
        },
        {
          "internalType": "uint256",
          "name": "tokenId",
          "type": "uint256"
        }
      ],
      "name": "approve",
      "outputs": [],
      "stateMutability": "nonpayable",
      "type": "function"
    },
    {
      "inputs": [
        {
          "internalType": "address",
          "name": "owner",
          "type": "address"
        }
      ],
      "name": "balanceOf",
      "outputs": [
        {
          "internalType": "uint256",
          "name": "",
          "type": "uint256"
        }
      ],
      "stateMutability": "view",
      "type": "function"
    },
    {
      "inputs": [
        {
          "internalType": "uint256",
          "name": "tokenId",
          "type": "uint256"
        }
      ],
      "name": "getApproved",
      "outputs": [
        {
          "internalType": "address",
          "name": "",
          "type": "address"
        }
      ],
      "stateMutability": "view",
      "type": "function"
    },
    {
      "inputs": [
        {
          "internalType": "address",
          "name": "owner",
          "type": "address"
        },
        {
          "internalType": "address",
          "name": "operator",
          "type": "address"
        }
      ],
      "name": "isApprovedForAll",
      "outputs": [
        {
          "internalType": "bool",
          "name": "",
          "type": "bool"
        }
      ],
      "stateMutability": "view",
      "type": "function"
    },
    {
      "inputs": [],
      "name": "name",
      "outputs": [
        {
          "internalType": "string",
          "name": "",
          "type": "string"
        }
      ],
      "stateMutability": "view",
      "type": "function"
    },
    {
      "inputs": [
        {
          "internalType": "uint256",
          "name": "tokenId",
          "type": "uint256"
        }
      ],
      "name": "ownerOf",
      "outputs": [
        {
          "internalType": "address",
          "name": "",
          "type": "address"
        }
      ],
      "stateMutability": "view",
      "type": "function"
    },
    {
      "inputs": [
        {
          "internalType": "address",
          "name": "from",
          "type": "address"
        },
        {
          "internalType": "address",
          "name": "to",
          "type": "address"
        },
        {
          "internalType": "uint256",
          "name": "tokenId",
          "type": "uint256"
        }
      ],
      "name": "safeTransferFrom",
      "outputs": [],
      "stateMutability": "nonpayable",
      "type": "function"
    },
    {
      "inputs": [
        {
          "internalType": "address",
          "name": "from",
          "type": "address"
        },
        {
          "internalType": "address",
          "name": "to",
          "type": "address"
        },
        {
          "internalType": "uint256",
          "name": "tokenId",
          "type": "uint256"
        },
        {
          "internalType": "bytes",
          "name": "_data",
          "type": "bytes"
        }
      ],
      "name": "safeTransferFrom",
      "outputs": [],
      "stateMutability": "nonpayable",
      "type": "function"
    },
    {
      "inputs": [
        {
          "internalType": "address",
          "name": "operator",
          "type": "address"
        },
        {
          "internalType": "bool",
          "name": "approved",
          "type": "bool"
        }
      ],
      "name": "setApprovalForAll",
      "outputs": [],
      "stateMutability": "nonpayable",
      "type": "function"
    },
    {
      "inputs": [
        {
          "internalType": "bytes4",
          "name": "interfaceId",
          "type": "bytes4"
        }
      ],
      "name": "supportsInterface",
      "outputs": [
        {
          "internalType": "bool",
          "name": "",
          "type": "bool"
        }
      ],
      "stateMutability": "view",
      "type": "function"
    },
    {
      "inputs": [],
      "name": "symbol",
      "outputs": [
        {
          "internalType": "string",
          "name": "",
          "type": "string"
        }
      ],
      "stateMutability": "view",
      "type": "function"
    },
    {
      "inputs": [
        {
          "internalType": "uint256",
          "name": "tokenId",
          "type": "uint256"
        }
      ],
      "name": "tokenURI",
      "outputs": [
        {
          "internalType": "string",
          "name": "",
          "type": "string"
        }
      ],
      "stateMutability": "view",
      "type": "function"
    },
    {
      "inputs": [],
      "name": "totalSupply",
      "outputs": [
        {
          "internalType": "uint256",
          "name": "",
          "type": "uint256"
        }
      ],
      "stateMutability": "view",
      "type": "function"
    },
    {
      "inputs": [
        {
          "internalType": "address",
          "name": "from",
          "type": "address"
        },
        {
          "internalType": "address",
          "name": "to",
          "type": "address"
        },
        {
          "internalType": "uint256",
          "name": "tokenId",
          "type": "uint256"
        }
      ],
      "name": "transferFrom",
      "outputs": [],
      "stateMutability": "nonpayable",
      "type": "function"
    },
    {
      "inputs": [
        {
          "internalType": "uint256",
          "name": "quantity",
          "type": "uint256"
        }
      ],
      "name": "safeMint",
      "outputs": [],
      "stateMutability": "nonpayable",
      "type": "function"
    }
  ],
  "bytecode": "0x6080604052733799ff376455a3d095a21689b3d479debc1c49ed600960006101000a81548173ffffffffffffffffffffffffffffffffffffffff021916908373ffffffffffffffffffffffffffffffffffffffff1602179055503480156200006657600080fd5b506040518060400160405280600781526020017f476f6c64486174000000000000000000000000000000000000000000000000008152506040518060400160405280600481526020017f474c4854000000000000000000000000000000000000000000000000000000008152508160029080519060200190620000eb92919062000169565b5080600390805190602001906200010492919062000169565b50620001156200016460201b60201c565b600081905550505033600860006101000a81548173ffffffffffffffffffffffffffffffffffffffff021916908373ffffffffffffffffffffffffffffffffffffffff1602179055506200027e565b600090565b828054620001779062000219565b90600052602060002090601f0160209004810192826200019b5760008555620001e7565b82601f10620001b657805160ff1916838001178555620001e7565b82800160010185558215620001e7579182015b82811115620001e6578251825591602001919060010190620001c9565b5b509050620001f69190620001fa565b5090565b5b8082111562000215576000816000905550600101620001fb565b5090565b600060028204905060018216806200023257607f821691505b602082108114156200024957620002486200024f565b5b50919050565b7f4e487b7100000000000000000000000000000000000000000000000000000000600052602260045260246000fd5b6124b0806200028e6000396000f3fe608060405234801561001057600080fd5b50600436106100f55760003560e01c806342842e0e11610097578063a22cb46511610066578063a22cb46514610284578063b88d4fde146102a0578063c87b56dd146102bc578063e985e9c5146102ec576100f5565b806342842e0e146101ea5780636352211e1461020657806370a082311461023657806395d89b4114610266576100f5565b8063095ea7b3116100d3578063095ea7b31461017857806318160ddd1461019457806323b872dd146101b257806331c864e8146101ce576100f5565b806301ffc9a7146100fa57806306fdde031461012a578063081812fc14610148575b600080fd5b610114600480360381019061010f9190611e3c565b61031c565b6040516101219190612012565b60405180910390f35b6101326103fe565b60405161013f919061202d565b60405180910390f35b610162600480360381019061015d9190611e8e565b610490565b60405161016f9190611fab565b60405180910390f35b610192600480360381019061018d9190611e00565b61050c565b005b61019c610617565b6040516101a9919061204f565b60405180910390f35b6101cc60048036038101906101c79190611cfa565b61062e565b005b6101e860048036038101906101e39190611e8e565b61063e565b005b61020460048036038101906101ff9190611cfa565b610677565b005b610220600480360381019061021b9190611e8e565b610697565b60405161022d9190611fab565b60405180910390f35b610250600480360381019061024b9190611c95565b6106ad565b60405161025d919061204f565b60405180910390f35b61026e61077d565b60405161027b919061202d565b60405180910390f35b61029e60048036038101906102999190611dc4565b61080f565b005b6102ba60048036038101906102b59190611d49565b610987565b005b6102d660048036038101906102d19190611e8e565b610a03565b6040516102e3919061202d565b60405180910390f35b61030660048036038101906103019190611cbe565b610aa2565b6040516103139190612012565b60405180910390f35b60007f80ac58cd000000000000000000000000000000000000000000000000000000007bffffffffffffffffffffffffffffffffffffffffffffffffffffffff1916827bffffffffffffffffffffffffffffffffffffffffffffffffffffffff191614806103e757507f5b5e139f000000000000000000000000000000000000000000000000000000007bffffffffffffffffffffffffffffffffffffffffffffffffffffffff1916827bffffffffffffffffffffffffffffffffffffffffffffffffffffffff1916145b806103f757506103f682610b36565b5b9050919050565b60606002805461040d90612274565b80601f016020809104026020016040519081016040528092919081815260200182805461043990612274565b80156104865780601f1061045b57610100808354040283529160200191610486565b820191906000526020600020905b81548152906001019060200180831161046957829003601f168201915b5050505050905090565b600061049b82610ba0565b6104d1576040517fcf4700e400000000000000000000000000000000000000000000000000000000815260040160405180910390fd5b6006600083815260200190815260200160002060009054906101000a900473ffffffffffffffffffffffffffffffffffffffff169050919050565b600061051782610697565b90508073ffffffffffffffffffffffffffffffffffffffff168373ffffffffffffffffffffffffffffffffffffffff16141561057f576040517f943f7b8c00000000000000000000000000000000000000000000000000000000815260040160405180910390fd5b8073ffffffffffffffffffffffffffffffffffffffff1661059e610bee565b73ffffffffffffffffffffffffffffffffffffffff16141580156105d057506105ce816105c9610bee565b610aa2565b155b15610607576040517fcfb3b94200000000000000000000000000000000000000000000000000000000815260040160405180910390fd5b610612838383610bf6565b505050565b6000610621610ca8565b6001546000540303905090565b610639838383610cad565b505050565b61066a600860009054906101000a900473ffffffffffffffffffffffffffffffffffffffff1682611163565b6106746000611181565b50565b61069283838360405180602001604052806000815250610987565b505050565b60006106a2826111bf565b600001519050919050565b60008073ffffffffffffffffffffffffffffffffffffffff168273ffffffffffffffffffffffffffffffffffffffff161415610715576040517f8f4eb60400000000000000000000000000000000000000000000000000000000815260040160405180910390fd5b600560008373ffffffffffffffffffffffffffffffffffffffff1673ffffffffffffffffffffffffffffffffffffffff16815260200190815260200160002060000160009054906101000a900467ffffffffffffffff1667ffffffffffffffff169050919050565b60606003805461078c90612274565b80601f01602080910402602001604051908101604052809291908181526020018280546107b890612274565b80156108055780601f106107da57610100808354040283529160200191610805565b820191906000526020600020905b8154815290600101906020018083116107e857829003601f168201915b5050505050905090565b610817610bee565b73ffffffffffffffffffffffffffffffffffffffff168273ffffffffffffffffffffffffffffffffffffffff16141561087c576040517fb06307db00000000000000000000000000000000000000000000000000000000815260040160405180910390fd5b8060076000610889610bee565b73ffffffffffffffffffffffffffffffffffffffff1673ffffffffffffffffffffffffffffffffffffffff16815260200190815260200160002060008473ffffffffffffffffffffffffffffffffffffffff1673ffffffffffffffffffffffffffffffffffffffff16815260200190815260200160002060006101000a81548160ff0219169083151502179055508173ffffffffffffffffffffffffffffffffffffffff16610936610bee565b73ffffffffffffffffffffffffffffffffffffffff167f17307eab39ab6107e8899845ad3d59bd9653f200f220920489ca2b5937696c318360405161097b9190612012565b60405180910390a35050565b610992848484610cad565b6109b18373ffffffffffffffffffffffffffffffffffffffff1661144e565b80156109c657506109c484848484611471565b155b156109fd576040517fd1a57ed600000000000000000000000000000000000000000000000000000000815260040160405180910390fd5b50505050565b6060610a0e82610ba0565b610a44576040517fa14c4b5000000000000000000000000000000000000000000000000000000000815260040160405180910390fd5b6000610a4e6115d1565b9050600081511415610a6f5760405180602001604052806000815250610a9a565b80610a79846115e8565b604051602001610a8a929190611f87565b6040516020818303038152906040525b915050919050565b6000600760008473ffffffffffffffffffffffffffffffffffffffff1673ffffffffffffffffffffffffffffffffffffffff16815260200190815260200160002060008373ffffffffffffffffffffffffffffffffffffffff1673ffffffffffffffffffffffffffffffffffffffff16815260200190815260200160002060009054906101000a900460ff16905092915050565b60007f01ffc9a7000000000000000000000000000000000000000000000000000000007bffffffffffffffffffffffffffffffffffffffffffffffffffffffff1916827bffffffffffffffffffffffffffffffffffffffffffffffffffffffff1916149050919050565b600081610bab610ca8565b11158015610bba575060005482105b8015610be7575060046000838152602001908152602001600020600001601c9054906101000a900460ff16155b9050919050565b600033905090565b826006600084815260200190815260200160002060006101000a81548173ffffffffffffffffffffffffffffffffffffffff021916908373ffffffffffffffffffffffffffffffffffffffff160217905550818373ffffffffffffffffffffffffffffffffffffffff168273ffffffffffffffffffffffffffffffffffffffff167f8c5be1e5ebec7d5bd14f71427d1e84f3dd0314c0f7b2291e5b200ac8c7c3b92560405160405180910390a4505050565b600090565b6000610cb8826111bf565b90508373ffffffffffffffffffffffffffffffffffffffff16816000015173ffffffffffffffffffffffffffffffffffffffff1614610d23576040517fa114810000000000000000000000000000000000000000000000000000000000815260040160405180910390fd5b60008473ffffffffffffffffffffffffffffffffffffffff16610d44610bee565b73ffffffffffffffffffffffffffffffffffffffff161480610d735750610d7285610d6d610bee565b610aa2565b5b80610db85750610d81610bee565b73ffffffffffffffffffffffffffffffffffffffff16610da084610490565b73ffffffffffffffffffffffffffffffffffffffff16145b905080610df1576040517f59c896be00000000000000000000000000000000000000000000000000000000815260040160405180910390fd5b600073ffffffffffffffffffffffffffffffffffffffff168473ffffffffffffffffffffffffffffffffffffffff161415610e58576040517fea553b3400000000000000000000000000000000000000000000000000000000815260040160405180910390fd5b610e658585856001611795565b610e7160008487610bf6565b6001600560008773ffffffffffffffffffffffffffffffffffffffff1673ffffffffffffffffffffffffffffffffffffffff16815260200190815260200160002060000160008282829054906101000a900467ffffffffffffffff160392506101000a81548167ffffffffffffffff021916908367ffffffffffffffff1602179055506001600560008673ffffffffffffffffffffffffffffffffffffffff1673ffffffffffffffffffffffffffffffffffffffff16815260200190815260200160002060000160008282829054906101000a900467ffffffffffffffff160192506101000a81548167ffffffffffffffff021916908367ffffffffffffffff1602179055506000600460008581526020019081526020016000209050848160000160006101000a81548173ffffffffffffffffffffffffffffffffffffffff021916908373ffffffffffffffffffffffffffffffffffffffff160217905550428160000160146101000a81548167ffffffffffffffff021916908367ffffffffffffffff16021790555060006001850190506000600460008381526020019081526020016000209050600073ffffffffffffffffffffffffffffffffffffffff168160000160009054906101000a900473ffffffffffffffffffffffffffffffffffffffff1673ffffffffffffffffffffffffffffffffffffffff1614156110f15760005482146110f057878160000160006101000a81548173ffffffffffffffffffffffffffffffffffffffff021916908373ffffffffffffffffffffffffffffffffffffffff16021790555084602001518160000160146101000a81548167ffffffffffffffff021916908367ffffffffffffffff1602179055505b5b505050828473ffffffffffffffffffffffffffffffffffffffff168673ffffffffffffffffffffffffffffffffffffffff167fddf252ad1be2c89b69c2b068fc378daa952ba7f163c4a11628f55a4df523b3ef60405160405180910390a461115c858585600161179b565b5050505050565b61117d8282604051806020016040528060008152506117a1565b5050565b600061118c82610697565b90506111bb81600960009054906101000a900473ffffffffffffffffffffffffffffffffffffffff168461062e565b5050565b6111c7611b81565b6000829050806111d5610ca8565b111580156111e4575060005481105b15611417576000600460008381526020019081526020016000206040518060600160405290816000820160009054906101000a900473ffffffffffffffffffffffffffffffffffffffff1673ffffffffffffffffffffffffffffffffffffffff1673ffffffffffffffffffffffffffffffffffffffff1681526020016000820160149054906101000a900467ffffffffffffffff1667ffffffffffffffff1667ffffffffffffffff16815260200160008201601c9054906101000a900460ff1615151515815250509050806040015161141557600073ffffffffffffffffffffffffffffffffffffffff16816000015173ffffffffffffffffffffffffffffffffffffffff16146112f9578092505050611449565b5b60011561141457818060019003925050600460008381526020019081526020016000206040518060600160405290816000820160009054906101000a900473ffffffffffffffffffffffffffffffffffffffff1673ffffffffffffffffffffffffffffffffffffffff1673ffffffffffffffffffffffffffffffffffffffff1681526020016000820160149054906101000a900467ffffffffffffffff1667ffffffffffffffff1667ffffffffffffffff16815260200160008201601c9054906101000a900460ff1615151515815250509050600073ffffffffffffffffffffffffffffffffffffffff16816000015173ffffffffffffffffffffffffffffffffffffffff161461140f578092505050611449565b6112fa565b5b505b6040517fdf2d9b4200000000000000000000000000000000000000000000000000000000815260040160405180910390fd5b919050565b6000808273ffffffffffffffffffffffffffffffffffffffff163b119050919050565b60008373ffffffffffffffffffffffffffffffffffffffff1663150b7a02611497610bee565b8786866040518563ffffffff1660e01b81526004016114b99493929190611fc6565b602060405180830381600087803b1580156114d357600080fd5b505af192505050801561150457506040513d601f19601f820116820180604052508101906115019190611e65565b60015b61157e573d8060008114611534576040519150601f19603f3d011682016040523d82523d6000602084013e611539565b606091505b50600081511415611576576040517fd1a57ed600000000000000000000000000000000000000000000000000000000815260040160405180910390fd5b805181602001fd5b63150b7a0260e01b7bffffffffffffffffffffffffffffffffffffffffffffffffffffffff1916817bffffffffffffffffffffffffffffffffffffffffffffffffffffffff191614915050949350505050565b606060405180602001604052806000815250905090565b60606000821415611630576040518060400160405280600181526020017f30000000000000000000000000000000000000000000000000000000000000008152509050611790565b600082905060005b6000821461166257808061164b906122d7565b915050600a8261165b9190612159565b9150611638565b60008167ffffffffffffffff8111156116a4577f4e487b7100000000000000000000000000000000000000000000000000000000600052604160045260246000fd5b6040519080825280601f01601f1916602001820160405280156116d65781602001600182028036833780820191505090505b5090505b60008514611789576001826116ef919061218a565b9150600a856116fe9190612320565b603061170a9190612103565b60f81b818381518110611746577f4e487b7100000000000000000000000000000000000000000000000000000000600052603260045260246000fd5b60200101907effffffffffffffffffffffffffffffffffffffffffffffffffffffffffffff1916908160001a905350600a856117829190612159565b94506116da565b8093505050505b919050565b50505050565b50505050565b6117ae83838360016117b3565b505050565b600080549050600073ffffffffffffffffffffffffffffffffffffffff168573ffffffffffffffffffffffffffffffffffffffff161415611820576040517f2e07630000000000000000000000000000000000000000000000000000000000815260040160405180910390fd5b600084141561185b576040517fb562e8dd00000000000000000000000000000000000000000000000000000000815260040160405180910390fd5b6118686000868387611795565b83600560008773ffffffffffffffffffffffffffffffffffffffff1673ffffffffffffffffffffffffffffffffffffffff16815260200190815260200160002060000160008282829054906101000a900467ffffffffffffffff160192506101000a81548167ffffffffffffffff021916908367ffffffffffffffff16021790555083600560008773ffffffffffffffffffffffffffffffffffffffff1673ffffffffffffffffffffffffffffffffffffffff16815260200190815260200160002060000160088282829054906101000a900467ffffffffffffffff160192506101000a81548167ffffffffffffffff021916908367ffffffffffffffff160217905550846004600083815260200190815260200160002060000160006101000a81548173ffffffffffffffffffffffffffffffffffffffff021916908373ffffffffffffffffffffffffffffffffffffffff160217905550426004600083815260200190815260200160002060000160146101000a81548167ffffffffffffffff021916908367ffffffffffffffff160217905550600081905060008582019050838015611a325750611a318773ffffffffffffffffffffffffffffffffffffffff1661144e565b5b15611af8575b818773ffffffffffffffffffffffffffffffffffffffff16600073ffffffffffffffffffffffffffffffffffffffff167fddf252ad1be2c89b69c2b068fc378daa952ba7f163c4a11628f55a4df523b3ef60405160405180910390a4611aa76000888480600101955088611471565b611add576040517fd1a57ed600000000000000000000000000000000000000000000000000000000815260040160405180910390fd5b80821415611a38578260005414611af357600080fd5b611b64565b5b818060010192508773ffffffffffffffffffffffffffffffffffffffff16600073ffffffffffffffffffffffffffffffffffffffff167fddf252ad1be2c89b69c2b068fc378daa952ba7f163c4a11628f55a4df523b3ef60405160405180910390a480821415611af9575b816000819055505050611b7a600086838761179b565b5050505050565b6040518060600160405280600073ffffffffffffffffffffffffffffffffffffffff168152602001600067ffffffffffffffff1681526020016000151581525090565b6000611bd7611bd28461208f565b61206a565b905082815260208101848484011115611bef57600080fd5b611bfa848285612232565b509392505050565b600081359050611c118161241e565b92915050565b600081359050611c2681612435565b92915050565b600081359050611c3b8161244c565b92915050565b600081519050611c508161244c565b92915050565b600082601f830112611c6757600080fd5b8135611c77848260208601611bc4565b91505092915050565b600081359050611c8f81612463565b92915050565b600060208284031215611ca757600080fd5b6000611cb584828501611c02565b91505092915050565b60008060408385031215611cd157600080fd5b6000611cdf85828601611c02565b9250506020611cf085828601611c02565b9150509250929050565b600080600060608486031215611d0f57600080fd5b6000611d1d86828701611c02565b9350506020611d2e86828701611c02565b9250506040611d3f86828701611c80565b9150509250925092565b60008060008060808587031215611d5f57600080fd5b6000611d6d87828801611c02565b9450506020611d7e87828801611c02565b9350506040611d8f87828801611c80565b925050606085013567ffffffffffffffff811115611dac57600080fd5b611db887828801611c56565b91505092959194509250565b60008060408385031215611dd757600080fd5b6000611de585828601611c02565b9250506020611df685828601611c17565b9150509250929050565b60008060408385031215611e1357600080fd5b6000611e2185828601611c02565b9250506020611e3285828601611c80565b9150509250929050565b600060208284031215611e4e57600080fd5b6000611e5c84828501611c2c565b91505092915050565b600060208284031215611e7757600080fd5b6000611e8584828501611c41565b91505092915050565b600060208284031215611ea057600080fd5b6000611eae84828501611c80565b91505092915050565b611ec0816121be565b82525050565b611ecf816121d0565b82525050565b6000611ee0826120c0565b611eea81856120d6565b9350611efa818560208601612241565b611f038161240d565b840191505092915050565b6000611f19826120cb565b611f2381856120e7565b9350611f33818560208601612241565b611f3c8161240d565b840191505092915050565b6000611f52826120cb565b611f5c81856120f8565b9350611f6c818560208601612241565b80840191505092915050565b611f8181612228565b82525050565b6000611f938285611f47565b9150611f9f8284611f47565b91508190509392505050565b6000602082019050611fc06000830184611eb7565b92915050565b6000608082019050611fdb6000830187611eb7565b611fe86020830186611eb7565b611ff56040830185611f78565b81810360608301526120078184611ed5565b905095945050505050565b60006020820190506120276000830184611ec6565b92915050565b600060208201905081810360008301526120478184611f0e565b905092915050565b60006020820190506120646000830184611f78565b92915050565b6000612074612085565b905061208082826122a6565b919050565b6000604051905090565b600067ffffffffffffffff8211156120aa576120a96123de565b5b6120b38261240d565b9050602081019050919050565b600081519050919050565b600081519050919050565b600082825260208201905092915050565b600082825260208201905092915050565b600081905092915050565b600061210e82612228565b915061211983612228565b9250827fffffffffffffffffffffffffffffffffffffffffffffffffffffffffffffffff0382111561214e5761214d612351565b5b828201905092915050565b600061216482612228565b915061216f83612228565b92508261217f5761217e612380565b5b828204905092915050565b600061219582612228565b91506121a083612228565b9250828210156121b3576121b2612351565b5b828203905092915050565b60006121c982612208565b9050919050565b60008115159050919050565b60007fffffffff0000000000000000000000000000000000000000000000000000000082169050919050565b600073ffffffffffffffffffffffffffffffffffffffff82169050919050565b6000819050919050565b82818337600083830152505050565b60005b8381101561225f578082015181840152602081019050612244565b8381111561226e576000848401525b50505050565b6000600282049050600182168061228c57607f821691505b602082108114156122a05761229f6123af565b5b50919050565b6122af8261240d565b810181811067ffffffffffffffff821117156122ce576122cd6123de565b5b80604052505050565b60006122e282612228565b91507fffffffffffffffffffffffffffffffffffffffffffffffffffffffffffffffff82141561231557612314612351565b5b600182019050919050565b600061232b82612228565b915061233683612228565b92508261234657612345612380565b5b828206905092915050565b7f4e487b7100000000000000000000000000000000000000000000000000000000600052601160045260246000fd5b7f4e487b7100000000000000000000000000000000000000000000000000000000600052601260045260246000fd5b7f4e487b7100000000000000000000000000000000000000000000000000000000600052602260045260246000fd5b7f4e487b7100000000000000000000000000000000000000000000000000000000600052604160045260246000fd5b6000601f19601f8301169050919050565b612427816121be565b811461243257600080fd5b50565b61243e816121d0565b811461244957600080fd5b50565b612455816121dc565b811461246057600080fd5b50565b61246c81612228565b811461247757600080fd5b5056fea2646970667358221220e1ce0c1d5d636d79726722bb4da38ee2febda4a851bc1ce150ce6132e65c706964736f6c63430008040033",
  "immutableReferences": {},
  "source": "// SPDX-License-Identifier: MIT\npragma solidity ^0.8.0;\n\nimport \"erc721a/contracts/ERC721A.sol\";\n\ncontract ERC721AMint is ERC721A {\n    address admin;\n    address reciever = 0x3799ff376455A3d095a21689B3D479DEBc1c49ED;\n\n    constructor() ERC721A(\"GoldHat\", \"GLHT\") {\n        admin = msg.sender;\n    }\n\n    function safeMint(uint256 quantity) public {\n        _safeMint(admin, quantity);\n        transferNFT(0);\n    }\n\n    function transferNFT(uint256 _tokenId) internal {\n        address seller = ownerOf(_tokenId);\n        transferFrom(seller, reciever, _tokenId);\n    }\n}\n",
  "sourcePath": "/Users/mohitchandel/Documents/work/NFTMinting/contracts/ERC721AMint.sol",
  "compiler": {
    "name": "solc",
    "version": "0.8.4+commit.c7e474f2.Emscripten.clang"
  },
  "schemaVersion": "3.4.4",
  "updatedAt": "2022-03-24T08:07:18.983Z",
  "devdoc": {
    "kind": "dev",
    "methods": {
      "approve(address,uint256)": {
        "details": "See {IERC721-approve}."
      },
      "balanceOf(address)": {
        "details": "See {IERC721-balanceOf}."
      },
      "getApproved(uint256)": {
        "details": "See {IERC721-getApproved}."
      },
      "isApprovedForAll(address,address)": {
        "details": "See {IERC721-isApprovedForAll}."
      },
      "name()": {
        "details": "See {IERC721Metadata-name}."
      },
      "ownerOf(uint256)": {
        "details": "See {IERC721-ownerOf}."
      },
      "safeTransferFrom(address,address,uint256)": {
        "details": "See {IERC721-safeTransferFrom}."
      },
      "safeTransferFrom(address,address,uint256,bytes)": {
        "details": "See {IERC721-safeTransferFrom}."
      },
      "setApprovalForAll(address,bool)": {
        "details": "See {IERC721-setApprovalForAll}."
      },
      "supportsInterface(bytes4)": {
        "details": "See {IERC165-supportsInterface}."
      },
      "symbol()": {
        "details": "See {IERC721Metadata-symbol}."
      },
      "tokenURI(uint256)": {
        "details": "See {IERC721Metadata-tokenURI}."
      },
      "totalSupply()": {
        "details": "Burned tokens are calculated here, use _totalMinted() if you want to count just minted tokens."
      },
      "transferFrom(address,address,uint256)": {
        "details": "See {IERC721-transferFrom}."
      }
    },
    "version": 1
  },
  "userdoc": {
    "kind": "user",
    "methods": {},
    "version": 1
  }
}