{
  "contractName": "ERC721Mint",
  "abi": [
    {
      "inputs": [],
      "stateMutability": "nonpayable",
      "type": "constructor"
    },
    {
      "anonymous": false,
      "inputs": [
        {
          "indexed": true,
          "internalType": "address",
          "name": "owner",
          "type": "address"
        },
        {
          "indexed": true,
          "internalType": "address",
          "name": "approved",
          "type": "address"
        },
        {
          "indexed": true,
          "internalType": "uint256",
          "name": "tokenId",
          "type": "uint256"
        }
      ],
      "name": "Approval",
      "type": "event"
    },
    {
      "anonymous": false,
      "inputs": [
        {
          "indexed": true,
          "internalType": "address",
          "name": "owner",
          "type": "address"
        },
        {
          "indexed": true,
          "internalType": "address",
          "name": "operator",
          "type": "address"
        },
        {
          "indexed": false,
          "internalType": "bool",
          "name": "approved",
          "type": "bool"
        }
      ],
      "name": "ApprovalForAll",
      "type": "event"
    },
    {
      "anonymous": false,
      "inputs": [
        {
          "indexed": true,
          "internalType": "address",
          "name": "from",
          "type": "address"
        },
        {
          "indexed": true,
          "internalType": "address",
          "name": "to",
          "type": "address"
        },
        {
          "indexed": true,
          "internalType": "uint256",
          "name": "tokenId",
          "type": "uint256"
        }
      ],
      "name": "Transfer",
      "type": "event"
    },
    {
      "inputs": [
        {
          "internalType": "address",
          "name": "to",
          "type": "address"
        },
        {
          "internalType": "uint256",
          "name": "tokenId",
          "type": "uint256"
        }
      ],
      "name": "approve",
      "outputs": [],
      "stateMutability": "nonpayable",
      "type": "function"
    },
    {
      "inputs": [
        {
          "internalType": "address",
          "name": "owner",
          "type": "address"
        }
      ],
      "name": "balanceOf",
      "outputs": [
        {
          "internalType": "uint256",
          "name": "",
          "type": "uint256"
        }
      ],
      "stateMutability": "view",
      "type": "function"
    },
    {
      "inputs": [
        {
          "internalType": "uint256",
          "name": "tokenId",
          "type": "uint256"
        }
      ],
      "name": "getApproved",
      "outputs": [
        {
          "internalType": "address",
          "name": "",
          "type": "address"
        }
      ],
      "stateMutability": "view",
      "type": "function"
    },
    {
      "inputs": [
        {
          "internalType": "address",
          "name": "owner",
          "type": "address"
        },
        {
          "internalType": "address",
          "name": "operator",
          "type": "address"
        }
      ],
      "name": "isApprovedForAll",
      "outputs": [
        {
          "internalType": "bool",
          "name": "",
          "type": "bool"
        }
      ],
      "stateMutability": "view",
      "type": "function"
    },
    {
      "inputs": [],
      "name": "name",
      "outputs": [
        {
          "internalType": "string",
          "name": "",
          "type": "string"
        }
      ],
      "stateMutability": "view",
      "type": "function"
    },
    {
      "inputs": [
        {
          "internalType": "uint256",
          "name": "tokenId",
          "type": "uint256"
        }
      ],
      "name": "ownerOf",
      "outputs": [
        {
          "internalType": "address",
          "name": "",
          "type": "address"
        }
      ],
      "stateMutability": "view",
      "type": "function"
    },
    {
      "inputs": [
        {
          "internalType": "address",
          "name": "from",
          "type": "address"
        },
        {
          "internalType": "address",
          "name": "to",
          "type": "address"
        },
        {
          "internalType": "uint256",
          "name": "tokenId",
          "type": "uint256"
        }
      ],
      "name": "safeTransferFrom",
      "outputs": [],
      "stateMutability": "nonpayable",
      "type": "function"
    },
    {
      "inputs": [
        {
          "internalType": "address",
          "name": "from",
          "type": "address"
        },
        {
          "internalType": "address",
          "name": "to",
          "type": "address"
        },
        {
          "internalType": "uint256",
          "name": "tokenId",
          "type": "uint256"
        },
        {
          "internalType": "bytes",
          "name": "_data",
          "type": "bytes"
        }
      ],
      "name": "safeTransferFrom",
      "outputs": [],
      "stateMutability": "nonpayable",
      "type": "function"
    },
    {
      "inputs": [
        {
          "internalType": "address",
          "name": "operator",
          "type": "address"
        },
        {
          "internalType": "bool",
          "name": "approved",
          "type": "bool"
        }
      ],
      "name": "setApprovalForAll",
      "outputs": [],
      "stateMutability": "nonpayable",
      "type": "function"
    },
    {
      "inputs": [
        {
          "internalType": "bytes4",
          "name": "interfaceId",
          "type": "bytes4"
        }
      ],
      "name": "supportsInterface",
      "outputs": [
        {
          "internalType": "bool",
          "name": "",
          "type": "bool"
        }
      ],
      "stateMutability": "view",
      "type": "function"
    },
    {
      "inputs": [],
      "name": "symbol",
      "outputs": [
        {
          "internalType": "string",
          "name": "",
          "type": "string"
        }
      ],
      "stateMutability": "view",
      "type": "function"
    },
    {
      "inputs": [
        {
          "internalType": "uint256",
          "name": "tokenId",
          "type": "uint256"
        }
      ],
      "name": "tokenURI",
      "outputs": [
        {
          "internalType": "string",
          "name": "",
          "type": "string"
        }
      ],
      "stateMutability": "view",
      "type": "function"
    },
    {
      "inputs": [
        {
          "internalType": "address",
          "name": "from",
          "type": "address"
        },
        {
          "internalType": "address",
          "name": "to",
          "type": "address"
        },
        {
          "internalType": "uint256",
          "name": "tokenId",
          "type": "uint256"
        }
      ],
      "name": "transferFrom",
      "outputs": [],
      "stateMutability": "nonpayable",
      "type": "function"
    },
    {
      "inputs": [
        {
          "internalType": "uint256",
          "name": "tokenId",
          "type": "uint256"
        }
      ],
      "name": "safeMint",
      "outputs": [],
      "stateMutability": "nonpayable",
      "type": "function"
    }
  ],
  "bytecode": "0x6080604052733799ff376455a3d095a21689b3d479debc1c49ed600760006101000a81548173ffffffffffffffffffffffffffffffffffffffff021916908373ffffffffffffffffffffffffffffffffffffffff1602179055503480156200006657600080fd5b506040518060400160405280600981526020017f47616d6553776f726400000000000000000000000000000000000000000000008152506040518060400160405280600581526020017f474d5352440000000000000000000000000000000000000000000000000000008152508160009080519060200190620000eb9291906200014e565b508060019080519060200190620001049291906200014e565b50505033600660006101000a81548173ffffffffffffffffffffffffffffffffffffffff021916908373ffffffffffffffffffffffffffffffffffffffff16021790555062000263565b8280546200015c90620001fe565b90600052602060002090601f016020900481019282620001805760008555620001cc565b82601f106200019b57805160ff1916838001178555620001cc565b82800160010185558215620001cc579182015b82811115620001cb578251825591602001919060010190620001ae565b5b509050620001db9190620001df565b5090565b5b80821115620001fa576000816000905550600101620001e0565b5090565b600060028204905060018216806200021757607f821691505b602082108114156200022e576200022d62000234565b5b50919050565b7f4e487b7100000000000000000000000000000000000000000000000000000000600052602260045260246000fd5b61279f80620002736000396000f3fe608060405234801561001057600080fd5b50600436106100ea5760003560e01c80636352211e1161008c578063a22cb46511610066578063a22cb4651461025b578063b88d4fde14610277578063c87b56dd14610293578063e985e9c5146102c3576100ea565b80636352211e146101dd57806370a082311461020d57806395d89b411461023d576100ea565b8063095ea7b3116100c8578063095ea7b31461016d57806323b872dd1461018957806331c864e8146101a557806342842e0e146101c1576100ea565b806301ffc9a7146100ef57806306fdde031461011f578063081812fc1461013d575b600080fd5b610109600480360381019061010491906119a1565b6102f3565b6040516101169190611d61565b60405180910390f35b6101276103d5565b6040516101349190611d7c565b60405180910390f35b610157600480360381019061015291906119f3565b610467565b6040516101649190611cfa565b60405180910390f35b61018760048036038101906101829190611965565b6104ec565b005b6101a3600480360381019061019e919061185f565b610604565b005b6101bf60048036038101906101ba91906119f3565b610664565b005b6101db60048036038101906101d6919061185f565b61069c565b005b6101f760048036038101906101f291906119f3565b6106bc565b6040516102049190611cfa565b60405180910390f35b610227600480360381019061022291906117fa565b61076e565b6040516102349190611f5e565b60405180910390f35b610245610826565b6040516102529190611d7c565b60405180910390f35b61027560048036038101906102709190611929565b6108b8565b005b610291600480360381019061028c91906118ae565b6108ce565b005b6102ad60048036038101906102a891906119f3565b610930565b6040516102ba9190611d7c565b60405180910390f35b6102dd60048036038101906102d89190611823565b6109d7565b6040516102ea9190611d61565b60405180910390f35b60007f80ac58cd000000000000000000000000000000000000000000000000000000007bffffffffffffffffffffffffffffffffffffffffffffffffffffffff1916827bffffffffffffffffffffffffffffffffffffffffffffffffffffffff191614806103be57507f5b5e139f000000000000000000000000000000000000000000000000000000007bffffffffffffffffffffffffffffffffffffffffffffffffffffffff1916827bffffffffffffffffffffffffffffffffffffffffffffffffffffffff1916145b806103ce57506103cd82610a6b565b5b9050919050565b6060600080546103e490612183565b80601f016020809104026020016040519081016040528092919081815260200182805461041090612183565b801561045d5780601f106104325761010080835404028352916020019161045d565b820191906000526020600020905b81548152906001019060200180831161044057829003601f168201915b5050505050905090565b600061047282610ad5565b6104b1576040517f08c379a00000000000000000000000000000000000000000000000000000000081526004016104a890611ede565b60405180910390fd5b6004600083815260200190815260200160002060009054906101000a900473ffffffffffffffffffffffffffffffffffffffff169050919050565b60006104f7826106bc565b90508073ffffffffffffffffffffffffffffffffffffffff168373ffffffffffffffffffffffffffffffffffffffff161415610568576040517f08c379a000000000000000000000000000000000000000000000000000000000815260040161055f90611f1e565b60405180910390fd5b8073ffffffffffffffffffffffffffffffffffffffff16610587610b41565b73ffffffffffffffffffffffffffffffffffffffff1614806105b657506105b5816105b0610b41565b6109d7565b5b6105f5576040517f08c379a00000000000000000000000000000000000000000000000000000000081526004016105ec90611e5e565b60405180910390fd5b6105ff8383610b49565b505050565b61061561060f610b41565b82610c02565b610654576040517f08c379a000000000000000000000000000000000000000000000000000000000815260040161064b90611f3e565b60405180910390fd5b61065f838383610ce0565b505050565b610690600660009054906101000a900473ffffffffffffffffffffffffffffffffffffffff1682610f47565b61069981610f65565b50565b6106b7838383604051806020016040528060008152506108ce565b505050565b6000806002600084815260200190815260200160002060009054906101000a900473ffffffffffffffffffffffffffffffffffffffff169050600073ffffffffffffffffffffffffffffffffffffffff168173ffffffffffffffffffffffffffffffffffffffff161415610765576040517f08c379a000000000000000000000000000000000000000000000000000000000815260040161075c90611e9e565b60405180910390fd5b80915050919050565b60008073ffffffffffffffffffffffffffffffffffffffff168273ffffffffffffffffffffffffffffffffffffffff1614156107df576040517f08c379a00000000000000000000000000000000000000000000000000000000081526004016107d690611e7e565b60405180910390fd5b600360008373ffffffffffffffffffffffffffffffffffffffff1673ffffffffffffffffffffffffffffffffffffffff168152602001908152602001600020549050919050565b60606001805461083590612183565b80601f016020809104026020016040519081016040528092919081815260200182805461086190612183565b80156108ae5780601f10610883576101008083540402835291602001916108ae565b820191906000526020600020905b81548152906001019060200180831161089157829003601f168201915b5050505050905090565b6108ca6108c3610b41565b8383610fa3565b5050565b6108df6108d9610b41565b83610c02565b61091e576040517f08c379a000000000000000000000000000000000000000000000000000000000815260040161091590611f3e565b60405180910390fd5b61092a84848484611110565b50505050565b606061093b82610ad5565b61097a576040517f08c379a000000000000000000000000000000000000000000000000000000000815260040161097190611efe565b60405180910390fd5b600061098461116c565b905060008151116109a457604051806020016040528060008152506109cf565b806109ae84611183565b6040516020016109bf929190611cd6565b6040516020818303038152906040525b915050919050565b6000600560008473ffffffffffffffffffffffffffffffffffffffff1673ffffffffffffffffffffffffffffffffffffffff16815260200190815260200160002060008373ffffffffffffffffffffffffffffffffffffffff1673ffffffffffffffffffffffffffffffffffffffff16815260200190815260200160002060009054906101000a900460ff16905092915050565b60007f01ffc9a7000000000000000000000000000000000000000000000000000000007bffffffffffffffffffffffffffffffffffffffffffffffffffffffff1916827bffffffffffffffffffffffffffffffffffffffffffffffffffffffff1916149050919050565b60008073ffffffffffffffffffffffffffffffffffffffff166002600084815260200190815260200160002060009054906101000a900473ffffffffffffffffffffffffffffffffffffffff1673ffffffffffffffffffffffffffffffffffffffff1614159050919050565b600033905090565b816004600083815260200190815260200160002060006101000a81548173ffffffffffffffffffffffffffffffffffffffff021916908373ffffffffffffffffffffffffffffffffffffffff160217905550808273ffffffffffffffffffffffffffffffffffffffff16610bbc836106bc565b73ffffffffffffffffffffffffffffffffffffffff167f8c5be1e5ebec7d5bd14f71427d1e84f3dd0314c0f7b2291e5b200ac8c7c3b92560405160405180910390a45050565b6000610c0d82610ad5565b610c4c576040517f08c379a0000000000000000000000000000000000000000000000000000000008152600401610c4390611e3e565b60405180910390fd5b6000610c57836106bc565b90508073ffffffffffffffffffffffffffffffffffffffff168473ffffffffffffffffffffffffffffffffffffffff161480610cc657508373ffffffffffffffffffffffffffffffffffffffff16610cae84610467565b73ffffffffffffffffffffffffffffffffffffffff16145b80610cd75750610cd681856109d7565b5b91505092915050565b8273ffffffffffffffffffffffffffffffffffffffff16610d00826106bc565b73ffffffffffffffffffffffffffffffffffffffff1614610d56576040517f08c379a0000000000000000000000000000000000000000000000000000000008152600401610d4d90611dbe565b60405180910390fd5b600073ffffffffffffffffffffffffffffffffffffffff168273ffffffffffffffffffffffffffffffffffffffff161415610dc6576040517f08c379a0000000000000000000000000000000000000000000000000000000008152600401610dbd90611dfe565b60405180910390fd5b610dd1838383611330565b610ddc600082610b49565b6001600360008573ffffffffffffffffffffffffffffffffffffffff1673ffffffffffffffffffffffffffffffffffffffff1681526020019081526020016000206000828254610e2c9190612099565b925050819055506001600360008473ffffffffffffffffffffffffffffffffffffffff1673ffffffffffffffffffffffffffffffffffffffff1681526020019081526020016000206000828254610e839190612012565b92505081905550816002600083815260200190815260200160002060006101000a81548173ffffffffffffffffffffffffffffffffffffffff021916908373ffffffffffffffffffffffffffffffffffffffff160217905550808273ffffffffffffffffffffffffffffffffffffffff168473ffffffffffffffffffffffffffffffffffffffff167fddf252ad1be2c89b69c2b068fc378daa952ba7f163c4a11628f55a4df523b3ef60405160405180910390a4610f42838383611335565b505050565b610f6182826040518060200160405280600081525061133a565b5050565b6000610f70826106bc565b9050610f9f81600760009054906101000a900473ffffffffffffffffffffffffffffffffffffffff1684610ce0565b5050565b8173ffffffffffffffffffffffffffffffffffffffff168373ffffffffffffffffffffffffffffffffffffffff161415611012576040517f08c379a000000000000000000000000000000000000000000000000000000000815260040161100990611e1e565b60405180910390fd5b80600560008573ffffffffffffffffffffffffffffffffffffffff1673ffffffffffffffffffffffffffffffffffffffff16815260200190815260200160002060008473ffffffffffffffffffffffffffffffffffffffff1673ffffffffffffffffffffffffffffffffffffffff16815260200190815260200160002060006101000a81548160ff0219169083151502179055508173ffffffffffffffffffffffffffffffffffffffff168373ffffffffffffffffffffffffffffffffffffffff167f17307eab39ab6107e8899845ad3d59bd9653f200f220920489ca2b5937696c31836040516111039190611d61565b60405180910390a3505050565b61111b848484610ce0565b61112784848484611395565b611166576040517f08c379a000000000000000000000000000000000000000000000000000000000815260040161115d90611d9e565b60405180910390fd5b50505050565b606060405180602001604052806000815250905090565b606060008214156111cb576040518060400160405280600181526020017f3000000000000000000000000000000000000000000000000000000000000000815250905061132b565b600082905060005b600082146111fd5780806111e6906121e6565b915050600a826111f69190612068565b91506111d3565b60008167ffffffffffffffff81111561123f577f4e487b7100000000000000000000000000000000000000000000000000000000600052604160045260246000fd5b6040519080825280601f01601f1916602001820160405280156112715781602001600182028036833780820191505090505b5090505b600085146113245760018261128a9190612099565b9150600a85611299919061222f565b60306112a59190612012565b60f81b8183815181106112e1577f4e487b7100000000000000000000000000000000000000000000000000000000600052603260045260246000fd5b60200101907effffffffffffffffffffffffffffffffffffffffffffffffffffffffffffff1916908160001a905350600a8561131d9190612068565b9450611275565b8093505050505b919050565b505050565b505050565b611344838361152c565b6113516000848484611395565b611390576040517f08c379a000000000000000000000000000000000000000000000000000000000815260040161138790611d9e565b60405180910390fd5b505050565b60006113b68473ffffffffffffffffffffffffffffffffffffffff16611706565b1561151f578373ffffffffffffffffffffffffffffffffffffffff1663150b7a026113df610b41565b8786866040518563ffffffff1660e01b81526004016114019493929190611d15565b602060405180830381600087803b15801561141b57600080fd5b505af192505050801561144c57506040513d601f19601f8201168201806040525081019061144991906119ca565b60015b6114cf573d806000811461147c576040519150601f19603f3d011682016040523d82523d6000602084013e611481565b606091505b506000815114156114c7576040517f08c379a00000000000000000000000000000000000000000000000000000000081526004016114be90611d9e565b60405180910390fd5b805181602001fd5b63150b7a0260e01b7bffffffffffffffffffffffffffffffffffffffffffffffffffffffff1916817bffffffffffffffffffffffffffffffffffffffffffffffffffffffff191614915050611524565b600190505b949350505050565b600073ffffffffffffffffffffffffffffffffffffffff168273ffffffffffffffffffffffffffffffffffffffff16141561159c576040517f08c379a000000000000000000000000000000000000000000000000000000000815260040161159390611ebe565b60405180910390fd5b6115a581610ad5565b156115e5576040517f08c379a00000000000000000000000000000000000000000000000000000000081526004016115dc90611dde565b60405180910390fd5b6115f160008383611330565b6001600360008473ffffffffffffffffffffffffffffffffffffffff1673ffffffffffffffffffffffffffffffffffffffff16815260200190815260200160002060008282546116419190612012565b92505081905550816002600083815260200190815260200160002060006101000a81548173ffffffffffffffffffffffffffffffffffffffff021916908373ffffffffffffffffffffffffffffffffffffffff160217905550808273ffffffffffffffffffffffffffffffffffffffff16600073ffffffffffffffffffffffffffffffffffffffff167fddf252ad1be2c89b69c2b068fc378daa952ba7f163c4a11628f55a4df523b3ef60405160405180910390a461170260008383611335565b5050565b6000808273ffffffffffffffffffffffffffffffffffffffff163b119050919050565b600061173c61173784611f9e565b611f79565b90508281526020810184848401111561175457600080fd5b61175f848285612141565b509392505050565b6000813590506117768161270d565b92915050565b60008135905061178b81612724565b92915050565b6000813590506117a08161273b565b92915050565b6000815190506117b58161273b565b92915050565b600082601f8301126117cc57600080fd5b81356117dc848260208601611729565b91505092915050565b6000813590506117f481612752565b92915050565b60006020828403121561180c57600080fd5b600061181a84828501611767565b91505092915050565b6000806040838503121561183657600080fd5b600061184485828601611767565b925050602061185585828601611767565b9150509250929050565b60008060006060848603121561187457600080fd5b600061188286828701611767565b935050602061189386828701611767565b92505060406118a4868287016117e5565b9150509250925092565b600080600080608085870312156118c457600080fd5b60006118d287828801611767565b94505060206118e387828801611767565b93505060406118f4878288016117e5565b925050606085013567ffffffffffffffff81111561191157600080fd5b61191d878288016117bb565b91505092959194509250565b6000806040838503121561193c57600080fd5b600061194a85828601611767565b925050602061195b8582860161177c565b9150509250929050565b6000806040838503121561197857600080fd5b600061198685828601611767565b9250506020611997858286016117e5565b9150509250929050565b6000602082840312156119b357600080fd5b60006119c184828501611791565b91505092915050565b6000602082840312156119dc57600080fd5b60006119ea848285016117a6565b91505092915050565b600060208284031215611a0557600080fd5b6000611a13848285016117e5565b91505092915050565b611a25816120cd565b82525050565b611a34816120df565b82525050565b6000611a4582611fcf565b611a4f8185611fe5565b9350611a5f818560208601612150565b611a688161231c565b840191505092915050565b6000611a7e82611fda565b611a888185611ff6565b9350611a98818560208601612150565b611aa18161231c565b840191505092915050565b6000611ab782611fda565b611ac18185612007565b9350611ad1818560208601612150565b80840191505092915050565b6000611aea603283611ff6565b9150611af58261232d565b604082019050919050565b6000611b0d602583611ff6565b9150611b188261237c565b604082019050919050565b6000611b30601c83611ff6565b9150611b3b826123cb565b602082019050919050565b6000611b53602483611ff6565b9150611b5e826123f4565b604082019050919050565b6000611b76601983611ff6565b9150611b8182612443565b602082019050919050565b6000611b99602c83611ff6565b9150611ba48261246c565b604082019050919050565b6000611bbc603883611ff6565b9150611bc7826124bb565b604082019050919050565b6000611bdf602a83611ff6565b9150611bea8261250a565b604082019050919050565b6000611c02602983611ff6565b9150611c0d82612559565b604082019050919050565b6000611c25602083611ff6565b9150611c30826125a8565b602082019050919050565b6000611c48602c83611ff6565b9150611c53826125d1565b604082019050919050565b6000611c6b602f83611ff6565b9150611c7682612620565b604082019050919050565b6000611c8e602183611ff6565b9150611c998261266f565b604082019050919050565b6000611cb1603183611ff6565b9150611cbc826126be565b604082019050919050565b611cd081612137565b82525050565b6000611ce28285611aac565b9150611cee8284611aac565b91508190509392505050565b6000602082019050611d0f6000830184611a1c565b92915050565b6000608082019050611d2a6000830187611a1c565b611d376020830186611a1c565b611d446040830185611cc7565b8181036060830152611d568184611a3a565b905095945050505050565b6000602082019050611d766000830184611a2b565b92915050565b60006020820190508181036000830152611d968184611a73565b905092915050565b60006020820190508181036000830152611db781611add565b9050919050565b60006020820190508181036000830152611dd781611b00565b9050919050565b60006020820190508181036000830152611df781611b23565b9050919050565b60006020820190508181036000830152611e1781611b46565b9050919050565b60006020820190508181036000830152611e3781611b69565b9050919050565b60006020820190508181036000830152611e5781611b8c565b9050919050565b60006020820190508181036000830152611e7781611baf565b9050919050565b60006020820190508181036000830152611e9781611bd2565b9050919050565b60006020820190508181036000830152611eb781611bf5565b9050919050565b60006020820190508181036000830152611ed781611c18565b9050919050565b60006020820190508181036000830152611ef781611c3b565b9050919050565b60006020820190508181036000830152611f1781611c5e565b9050919050565b60006020820190508181036000830152611f3781611c81565b9050919050565b60006020820190508181036000830152611f5781611ca4565b9050919050565b6000602082019050611f736000830184611cc7565b92915050565b6000611f83611f94565b9050611f8f82826121b5565b919050565b6000604051905090565b600067ffffffffffffffff821115611fb957611fb86122ed565b5b611fc28261231c565b9050602081019050919050565b600081519050919050565b600081519050919050565b600082825260208201905092915050565b600082825260208201905092915050565b600081905092915050565b600061201d82612137565b915061202883612137565b9250827fffffffffffffffffffffffffffffffffffffffffffffffffffffffffffffffff0382111561205d5761205c612260565b5b828201905092915050565b600061207382612137565b915061207e83612137565b92508261208e5761208d61228f565b5b828204905092915050565b60006120a482612137565b91506120af83612137565b9250828210156120c2576120c1612260565b5b828203905092915050565b60006120d882612117565b9050919050565b60008115159050919050565b60007fffffffff0000000000000000000000000000000000000000000000000000000082169050919050565b600073ffffffffffffffffffffffffffffffffffffffff82169050919050565b6000819050919050565b82818337600083830152505050565b60005b8381101561216e578082015181840152602081019050612153565b8381111561217d576000848401525b50505050565b6000600282049050600182168061219b57607f821691505b602082108114156121af576121ae6122be565b5b50919050565b6121be8261231c565b810181811067ffffffffffffffff821117156121dd576121dc6122ed565b5b80604052505050565b60006121f182612137565b91507fffffffffffffffffffffffffffffffffffffffffffffffffffffffffffffffff82141561222457612223612260565b5b600182019050919050565b600061223a82612137565b915061224583612137565b9250826122555761225461228f565b5b828206905092915050565b7f4e487b7100000000000000000000000000000000000000000000000000000000600052601160045260246000fd5b7f4e487b7100000000000000000000000000000000000000000000000000000000600052601260045260246000fd5b7f4e487b7100000000000000000000000000000000000000000000000000000000600052602260045260246000fd5b7f4e487b7100000000000000000000000000000000000000000000000000000000600052604160045260246000fd5b6000601f19601f8301169050919050565b7f4552433732313a207472616e7366657220746f206e6f6e20455243373231526560008201527f63656976657220696d706c656d656e7465720000000000000000000000000000602082015250565b7f4552433732313a207472616e736665722066726f6d20696e636f72726563742060008201527f6f776e6572000000000000000000000000000000000000000000000000000000602082015250565b7f4552433732313a20746f6b656e20616c7265616479206d696e74656400000000600082015250565b7f4552433732313a207472616e7366657220746f20746865207a65726f2061646460008201527f7265737300000000000000000000000000000000000000000000000000000000602082015250565b7f4552433732313a20617070726f766520746f2063616c6c657200000000000000600082015250565b7f4552433732313a206f70657261746f7220717565727920666f72206e6f6e657860008201527f697374656e7420746f6b656e0000000000000000000000000000000000000000602082015250565b7f4552433732313a20617070726f76652063616c6c6572206973206e6f74206f7760008201527f6e6572206e6f7220617070726f76656420666f7220616c6c0000000000000000602082015250565b7f4552433732313a2062616c616e636520717565727920666f7220746865207a6560008201527f726f206164647265737300000000000000000000000000000000000000000000602082015250565b7f4552433732313a206f776e657220717565727920666f72206e6f6e657869737460008201527f656e7420746f6b656e0000000000000000000000000000000000000000000000602082015250565b7f4552433732313a206d696e7420746f20746865207a65726f2061646472657373600082015250565b7f4552433732313a20617070726f76656420717565727920666f72206e6f6e657860008201527f697374656e7420746f6b656e0000000000000000000000000000000000000000602082015250565b7f4552433732314d657461646174613a2055524920717565727920666f72206e6f60008201527f6e6578697374656e7420746f6b656e0000000000000000000000000000000000602082015250565b7f4552433732313a20617070726f76616c20746f2063757272656e74206f776e6560008201527f7200000000000000000000000000000000000000000000000000000000000000602082015250565b7f4552433732313a207472616e736665722063616c6c6572206973206e6f74206f60008201527f776e6572206e6f7220617070726f766564000000000000000000000000000000602082015250565b612716816120cd565b811461272157600080fd5b50565b61272d816120df565b811461273857600080fd5b50565b612744816120eb565b811461274f57600080fd5b50565b61275b81612137565b811461276657600080fd5b5056fea26469706673582212206a3e0a9137ea98705cd6e364b9079347124dc90e1a2fb14e62b55dd3c768700464736f6c63430008040033",
  "immutableReferences": {},
  "source": "// SPDX-License-Identifier: MIT\npragma solidity ^0.8.0;\n\nimport \"@openzeppelin/contracts/token/ERC721/ERC721.sol\";\n\ncontract ERC721Mint is ERC721 {\n    address admin;\n    address reciever = 0x3799ff376455A3d095a21689B3D479DEBc1c49ED;\n\n    constructor() ERC721(\"GameSword\", \"GMSRD\") {\n        admin = msg.sender;\n    }\n\n    function safeMint(uint256 tokenId) public {\n        _safeMint(admin, tokenId);\n        transferNFT(tokenId);\n    }\n\n    function transferNFT(uint256 _tokenId) internal {\n        address seller = ownerOf(_tokenId);\n        _transfer(seller, reciever, _tokenId);\n    }\n}\n",
  "sourcePath": "/Users/mohitchandel/Documents/work/NFTMinting/contracts/ERC721Mint.sol",
  "compiler": {
    "name": "solc",
    "version": "0.8.4+commit.c7e474f2.Emscripten.clang"
  },
  "schemaVersion": "3.4.4",
  "updatedAt": "2022-03-24T08:07:18.989Z",
  "devdoc": {
    "kind": "dev",
    "methods": {
      "approve(address,uint256)": {
        "details": "See {IERC721-approve}."
      },
      "balanceOf(address)": {
        "details": "See {IERC721-balanceOf}."
      },
      "getApproved(uint256)": {
        "details": "See {IERC721-getApproved}."
      },
      "isApprovedForAll(address,address)": {
        "details": "See {IERC721-isApprovedForAll}."
      },
      "name()": {
        "details": "See {IERC721Metadata-name}."
      },
      "ownerOf(uint256)": {
        "details": "See {IERC721-ownerOf}."
      },
      "safeTransferFrom(address,address,uint256)": {
        "details": "See {IERC721-safeTransferFrom}."
      },
      "safeTransferFrom(address,address,uint256,bytes)": {
        "details": "See {IERC721-safeTransferFrom}."
      },
      "setApprovalForAll(address,bool)": {
        "details": "See {IERC721-setApprovalForAll}."
      },
      "supportsInterface(bytes4)": {
        "details": "See {IERC165-supportsInterface}."
      },
      "symbol()": {
        "details": "See {IERC721Metadata-symbol}."
      },
      "tokenURI(uint256)": {
        "details": "See {IERC721Metadata-tokenURI}."
      },
      "transferFrom(address,address,uint256)": {
        "details": "See {IERC721-transferFrom}."
      }
    },
    "version": 1
  },
  "userdoc": {
    "kind": "user",
    "methods": {},
    "version": 1
  }
}